:020000040800F2
:1000000000800120B9350008DD340008DF34000825
:10001000E1340008E3340008E53400080000000083
:10002000000000000000000000000000E7340008AD
:10003000E934000800000000EB340008ED3400084B
:100040000936000809360008093600080936000894
:100050000936000809360008093600080936000884
:100060000936000809360008093600080936000874
:100070000936000809360008093600080936000864
:100080000936000809360008093600080936000854
:10009000093600080936000809360008F13400085E
:1000A0000936000809360008093600080936000834
:1000B0000936000809360008093600080936000824
:1000C0000936000809360008093600080936000814
:1000D0000936000809360008093600080936000804
:1000E00009360008093600080936000809360008F4
:1000F00009360008093600080936000809360008E4
:1001000009360008093600080936000809360008D3
:1001100009360008093600080936000809360008C3
:1001200009360008093600080936000809360008B3
:1001300009360008093600080936000809360008A3
:100140000936000809360008093600080936000893
:100150000936000809360008093600080936000883
:100160000936000809360008093600080936000873
:1001700009360008093600080936000800000000AA
:080180000936000809360008E9
:1001900010B5054C237833B9044B13B10448AFF3C1
:1001A00000800123237010BDE0010020000000004A
:1001B000FC45000808B5034B1BB103490348AFF3E6
:1001C000008008BD00000000E4010020FC4500089C
:1001D00001F0FF01102A2BDB10F0070F08D010F8F8
:1001E000013B013A8B422DD010F0070F42B3F6D1FC
:1001F000F0B441EA012141EA014122F007047FF015
:1002000000070023F0E80256083C85EA010586EA6B
:10021000010685FA47F5A3FA87F586FA47F6A5FAA7
:1002200087F68EB9EED1F0BC01F0FF0102F00702B3
:1002300032B110F8013B013A83EA010313B1F8D15E
:100240000020704701387047002D06BF354603383F
:10025000073815F0010F07D1013015F4807F02BF78
:10026000013015F4C03F0130F0BC0138704700BFC9
:1002700081F0004102E000BF83F0004330B54FEA57
:1002800041044FEA430594EA050F08BF90EA020FC4
:100290001FBF54EA000C55EA020C7FEA645C7FEA57
:1002A000655C00F0E2804FEA5454D4EB5555B8BF7A
:1002B0006D420CDD2C4480EA020281EA030382EAEB
:1002C000000083EA010180EA020281EA0303362D7D
:1002D00088BF30BD11F0004F4FEA01314FF4801C50
:1002E0004CEA113102D0404261EB410113F0004F62
:1002F0004FEA03334CEA133302D0524263EB430319
:1003000094EA050F00F0A780A4F10104D5F1200EB6
:100310000DDB02FA0EFC22FA05F2801841F1000111
:1003200003FA0EF2801843FA05F359410EE0A5F1E5
:1003300020050EF1200E012A03FA0EFC28BF4CF016
:10034000020C43FA05F3C01851EBE37101F00045CC
:1003500007D54FF0000EDCF1000C7EEB00006EEBD9
:100360000101B1F5801F1BD3B1F5001F0CD3490863
:100370005FEA30004FEA3C0C04F101044FEA4452BA
:1003800012F5800F80F09A80BCF1004F08BF5FEA41
:10039000500C50F1000041EB045141EA050130BD21
:1003A0005FEA4C0C404141EB010111F4801FA4F1C4
:1003B0000104E9D191F0000F04BF01460020B1FA19
:1003C00081F308BF2033A3F10B03B3F120020CDA51
:1003D0000C3208DD02F1140CC2F10C0201FA0CF02F
:1003E00021FA02F10CE002F11402D8BFC2F1200C94
:1003F00001FA02F120FA0CFCDCBF41EA0C0190404A
:10040000E41AA2BF01EB0451294330BD6FEA040492
:100410001F3C1CDA0C340EDC04F11404C4F120027D
:1004200020FA04F001FA02F340EA030021FA04F38F
:1004300045EA030130BDC4F10C04C4F1200220FAE6
:1004400002F001FA04F340EA0300294630BD21FA24
:1004500004F0294630BD94F0000F83F4801306BFEA
:1004600081F480110134013D4EE77FEA645C18BFDE
:100470007FEA655C29D094EA050F08BF90EA020F75
:1004800005D054EA000C04BF1946104630BD91EA6D
:10049000030F1EBF0021002030BD5FEA545C05D170
:1004A0004000494128BF41F0004130BD14F58004AF
:1004B0003CBF01F5801130BD01F0004545F0FE4123
:1004C00041F470014FF0000030BD7FEA645C1ABF58
:1004D000194610467FEA655C1CBF0B46024650EA8F
:1004E000013406BF52EA033591EA030F41F40021BB
:1004F00030BD00BF90F0000F04BF0021704730B541
:100500004FF4806404F132044FF000054FF0000115
:1005100050E700BF90F0000F04BF0021704730B5D6
:100520004FF4806404F1320410F0004548BF4042AB
:100530004FF000013EE700BF42004FEAE2014FEA00
:1005400031014FEA02701FBF12F07F4393F07F4FDB
:1005500081F06051704792F0000F14BF93F07F4F0D
:10056000704730B54FF4607401F0004521F0004150
:1005700020E700BF50EA010208BF704730B54FF0D6
:1005800000050AE050EA010208BF704730B511F0DB
:10059000004502D5404261EB41014FF4806404F113
:1005A00032045FEA915C3FF4DCAE4FF003025FEA95
:1005B000DC0C18BF03325FEADC0C18BF033202EB1D
:1005C000DC02C2F1200300FA03FC20FA02F001FA77
:1005D00003FE40EA0E0021FA02F11444C1E600BF16
:1005E00070B54FF0FF0C4CF4E06C1CEA11541DBFC9
:1005F0001CEA135594EA0C0F95EA0C0F00F0DEF894
:100600002C4481EA030621EA4C5123EA4C5350EA78
:10061000013518BF52EA033541F4801143F48013C9
:1006200038D0A0FB02CE4FF00005E1FB02E506F05A
:100630000042E0FB03E54FF00006E1FB03569CF0AF
:10064000000F18BF4EF0010EA4F1FF04B6F5007FB5
:1006500064F5407404D25FEA4E0E6D4146EB060627
:1006600042EAC62141EA55514FEAC52040EA5E50B0
:100670004FEACE2EB4F1FD0C88BFBCF5E06F1ED85A
:10068000BEF1004F08BF5FEA500E50F1000041EB91
:10069000045170BD06F0004646EA010140EA02003E
:1006A00081EA0301B4EB5C04C2BFD4EB0C0541EA60
:1006B000045170BD41F480114FF0000E013C00F375
:1006C000AB8014F1360FDEBF002001F0004170BD99
:1006D000C4F10004203C35DA0C341BDC04F11404B2
:1006E000C4F1200500FA05F320FA04F001FA05F23E
:1006F00040EA020001F0004221F0004110EBD3700B
:1007000021FA04F642EB06015EEA430E08BF20EA36
:10071000D37070BDC4F10C04C4F1200500FA04F3D9
:1007200020FA05F001FA04F240EA020001F000416B
:1007300010EBD37041F100015EEA430E08BF20EADE
:10074000D37070BDC4F1200500FA05F24EEA020E26
:1007500020FA04F301FA05F243EA020321FA04F055
:1007600001F0004121FA04F220EA020000EBD3700C
:100770005EEA430E08BF20EAD37070BD94F0000F0C
:100780000FD101F00046400041EB010111F4801F40
:1007900008BF013CF7D041EA060195F0000F18BFF1
:1007A000704703F00046520043EB030313F4801F2D
:1007B00008BF013DF7D043EA0603704794EA0C0FE7
:1007C0000CEA135518BF95EA0C0F0CD050EA4106FD
:1007D00018BF52EA4306D1D181EA030101F000417A
:1007E0004FF0000070BD50EA410606BF10461946A2
:1007F00052EA430619D094EA0C0F02D150EA0136AE
:1008000013D195EA0C0F05D152EA03361CBF1046EE
:1008100019460AD181EA030101F0004141F0FE418D
:1008200041F470014FF0000070BD41F0FE4141F411
:10083000780170BD70B54FF0FF0C4CF4E06C1CEA11
:1008400011541DBF1CEA135594EA0C0F95EA0C0FC6
:1008500000F0A7F8A4EB050481EA030E52EA033581
:100860004FEA013100F088804FEA03334FF08055A2
:1008700045EA131343EA12634FEA022245EA1115CF
:1008800045EA10654FEA00260EF000419D4208BF80
:10089000964244F1FD0404F5407402D25B084FEA2D
:1008A0003202B61A65EB03055B084FEA32024FF4D9
:1008B00080104FF4002CB6EB020E75EB030E22BF36
:1008C000B61A754640EA0C005B084FEA3202B6EBF6
:1008D000020E75EB030E22BFB61A754640EA5C00A5
:1008E0005B084FEA3202B6EB020E75EB030E22BF35
:1008F000B61A754640EA9C005B084FEA3202B6EB36
:10090000020E75EB030E22BFB61A754640EADC00F4
:1009100055EA060E18D04FEA051545EA16754FEA56
:1009200006164FEAC30343EA52734FEAC2025FEA74
:100930001C1CC0D111F4801F0BD141EA00014FF003
:1009400000004FF0004CB6E711F4801F04BF0143D4
:100950000020B4F1FD0C88BFBCF5E06F3FF6AFAEF0
:10096000B5EB030C04BFB6EB020C5FEA500C50F180
:10097000000041EB045170BD0EF0004E4EEA113103
:1009800014EB5C04C2BFD4EB0C0541EA045170BD0A
:1009900041F480114FF0000E013C90E645EA060E4E
:1009A0008DE60CEA135594EA0C0F08BF95EA0C0F7C
:1009B0003FF43BAF94EA0C0F0AD150EA01347FF4C4
:1009C00034AF95EA0C0F7FF425AF104619462CE79B
:1009D00095EA0C0F06D152EA03353FF4FDAE1046FE
:1009E000194622E750EA410618BF52EA43067FF44F
:1009F000C5AE50EA41047FF40DAF52EA43057FF4DF
:100A0000EBAE12E74FEA410212F5001215D211D5F2
:100A10006FF47873B3EB625212D94FEAC12343F0FB
:100A2000004343EA505311F0004F23FA02F018BF7D
:100A3000404270474FF00000704750EA013005D146
:100A400011F0004008BF6FF0004070474FF0000009
:100A5000704700BF4FEA4102B2F1E04324BFB3F553
:100A6000001CDCF1FE5C0DD901F0004C4FEAC00225
:100A70004CEA5070B2F1004F40EB830008BF20F009
:100A80000100704711F0804F21D113F13872BCBFC3
:100A900001F00040704741F480114FEA5252C2F118
:100AA0001802C2F1200C10FA0CF320FA02F018BF61
:100AB00040F001004FEAC1234FEAD32303FA0CFCB4
:100AC00040EA0C0023FA02F34FEA4303CCE77FEA43
:100AD000625307D150EA01331EBF4FF0FE4040F48D
:100AE0004000704701F0004040F0FE4040F400003C
:100AF000704700BF38B50F4B0546186808B901208C
:100B000038BD0D4A4FF47A73B3FBF0F31068B0FBB5
:100B1000F3F000F09FF804460028F0D10F2DEED836
:100B2000024629464FF0FF3000F052F8034B2046B2
:100B30001D6038BD00000020780100200400002066
:100B400010B5032000F032F80020FFF7D3FF044671
:100B500018B902F0ABFC204610BD0124FBE70000F1
:100B6000034A0449136809680B441360704700BFC7
:100B70001802002000000020014B1868704700BFD9
:100B80001802002038B50446FFF7F6FF631C1CBFAF
:100B9000054B1B68054618BFE418FFF7EDFF401B27
:100BA0008442FAD838BD00BF00000020074AD3684D
:100BB00023F4E0631B041B0C43F0BF63000243F407
:100BC000003300F4E0600343D360704700ED00E0C1
:100BD000174B30B5DC68C4F30224C4F10703251DAC
:100BE000042B28BF0423062D4FF0010505FA03F35B
:100BF00003F1FF338CBF033C00241940A14005FAE8
:100C000004F4013C2240002842EA01024FEA0212A9
:100C1000ADBF00F1604000F00F00064B00F56140F1
:100C2000B5BFD2B2D2B21A5480F8002330BD00BF93
:100C300000ED00E014ED00E0002808DB420901238C
:100C400000F01F0003FA00F0014B43F82200704748
:100C500000E100E00138B0F1807F0AD2064B074A7C
:100C60005860F02182F823100020072298601A6053
:100C700070470120704700BF10E000E000ED00E089
:100C80002DE9F04F85B00B68DFF8A881674C019320
:100C90000023019ADA4002D105B0BDE8F08F0126A9
:100CA000019A9E4012EA060E00F0B1804A6822F0D6
:100CB0001007022F16D14FEAD30900EB890903F080
:100CC000070AD9F820504FEA8A0A4FF00F0C0CFAA5
:100CD0000AFC25EA0C0C0D6905FA0AF545EA0C0533
:100CE000C9F820504FEA430C0325D0F800B005FAAC
:100CF0000CF5ED4302F0030A0BEA050B0AFA0CF9B6
:100D0000013F49EA0B09012FC0F8009011D887680C
:100D100005EA0709CF6807FA0CF747EA0907876071
:100D2000476827EA0609C2F300179F4047EA090708
:100D30004760BAF1030F07D1C76A27EA0606C2F374
:100D4000C0079F403E43C662C66835408E6806FABB
:100D50000CF63543C560D50059D5D8F8605045F03C
:100D60000105C8F86050D8F8605023F0030606F17A
:100D7000804605F0010506F58036039503F0030C67
:100D8000039DB5684FEA8C0C0F2707FA0CF7B0F1FA
:100D9000904F25EA07073CD0254DA8423BD005F5EA
:100DA0008065A84239D005F58065A84237D005F5A1
:100DB0008065A84235D005F58065A84233D005F599
:100DC0008065A84214BF0725062505FA0CF53D43AA
:100DD000B56025686FEA0E06D70354BF35404EEA6A
:100DE000050525606568970354BF35404EEA050543
:100DF0006560A568D70254BF35404EEA0505A56079
:100E0000E568920254BF35404EEA0505E5600133BE
:100E10003FE70025D9E70125D7E70225D5E70325D8
:100E2000D3E70425D1E70525CFE700BF0004014043
:100E300000040048001002400369194214BF012059
:100E4000002070470AB181617047816270470000DD
:100E500008B5044B5969014202D0586102F02EF8DE
:100E600008BD00BF0004014003689A69910744BFB0
:100E700000229A629A69D2075EBF9A6942F0010223
:100E80009A61704730B5039C05682343640D04F4F0
:100E9000806444F07F7444F458346868C1F30901F5
:100EA00044F47F74194344F0030441EA024120EA08
:100EB00004042143696030BD2DE9F041069F0446DA
:100EC000884616461D462268936938EA03030CBF1C
:100ED00001230023B34202D00020BDE8F0816B1C47
:100EE000F2D0FFF749FEC01B854201D3002DEAD1A5
:100EF000636C43F020036364202384F841300023B3
:100F000084F8423084F840300120BDE8F081036865
:100F100070B50446986910F010000D46164616D1BB
:100F200070BD691C14D0FFF727FE801B854200D3DB
:100F30006DB9636C43F020036364202384F841306F
:100F4000002384F8423084F84030012070BD2368CB
:100F500099698A06E5D510222025DA612046DD61EF
:100F6000FFF782FF2268536823F0FF7323F48B336B
:100F700023F4FF7323F001035360636C43F0040315
:100F8000636484F84150DBE770B504460D461646AD
:100F900023689B699B0701D5002070BD3246294616
:100FA0002046FFF7B4FFA0B96A1CF1D0FFF7E4FDBB
:100FB000801B854201D3002DEAD1636C43F02003EE
:100FC0006364202384F84130002384F8423084F89D
:100FD0004030012070BD0000F7B5099E1F46164B3A
:100FE0000093054614464FF08073FAB2FFF74AFFAC
:100FF000324608992846FFF7C7FF10B1012003B019
:10100000F0BD012F2B680CD1E4B29C62089B0096C6
:10101000002280212846FFF74FFF003018BF012033
:10102000EDE7220A9A62089932462846FFF7ACFF9C
:101030000028E3D12B68E7E700200080F7B5099E80
:101040001F46164B0093054614460023FAB2FFF7DD
:1010500019FF324608992846FFF796FF10B1012084
:1010600003B0F0BD012F2B680CD1E4B29C62089B49
:101070000096002240212846FFF71EFF003018BFCF
:101080000120EDE7220A9A62089932462846FFF7C6
:101090007BFF0028E3D12B68E7E700BF002000803A
:1010A00070B504460D46164623689B699B0601D51C
:1010B000002070BD324629462046FFF728FF90B930
:1010C000FFF75AFD801B854201D3002DECD1636CE4
:1010D00043F020036364202384F84130002384F824
:1010E000423084F84030012070BD704710B504468E
:1010F00000284AD090F8413003F0FF021BB980F875
:101100004020FFF7F2FF242384F841302368E16890
:101110001A6822F001021A60626822F070621A6195
:101120009A68012922F400429A60A26824D142F40C
:1011300000429A605A68616942F0007242F40042CB
:101140005A60DA6822F40042DA6022690A43A1692F
:1011500042EA0122DA60216AE2690A431A601A68E7
:1011600042F001021A6000202023606484F84130BC
:10117000206384F8420010BD42F4044202299A60C0
:1011800004BF4FF400625A60D4E7012010BD2DE97E
:10119000F04F9B4690F8413085B0202B04460F4617
:1011A0000392BDF83CA0DDF8408040F0A5800E9B86
:1011B00013B1BAF1000F06D14FF40073636401203C
:1011C00005B0BDE8F08F90F84030012B00F094801E
:1011D000012580F84050FFF7CFFC19230090064608
:1011E0002A464FF400412046FFF766FE814600285C
:1011F000E5D1212384F84130402384F842300E9B0E
:10120000606463626063A4F82AA00196CDF8008050
:101210005B46039A39462046FFF7DEFE10B184F89C
:101220004090CCE7638D9BB2FF2B55D9FF222285DE
:1012300000904FF0807339462046FFF723FE324678
:1012400041462046FFF7A0FE0028B8D1636A226815
:1012500013F8011B91626362638D228D013B9BB287
:101260006385638D013A92B29BB22285ABB1A2B97C
:101270000096434680212046FFF71EFE00289ED19F
:10128000638D9BB2FF2B2FD9FF22228500904FF058
:10129000807339462046FFF7F5FD638D9BB2002B26
:1012A000CDD1324641462046FFF7FAFE002886D1CE
:1012B00023682021D9615A6822F0FF7222F48B3210
:1012C00022F4FF7222F001025A6084F8411084F87F
:1012D000400084F8420073E7628D009092B222854C
:1012E0004FF00073D2B2A6E7628D009092B22285D1
:1012F0004FF00073D2B2CCE7022061E72DE9F04F46
:101300009B4690F8413085B0202B04460F4603924F
:10131000BDF83CA0DDF8408040F0A9800E9B13B1E1
:10132000BAF1000F06D14FF400736364012005B0D9
:10133000BDE8F08F90F84030012B00F09880012537
:1013400080F84050FFF718FC1923009006462A4603
:101350004FF400412046FFF7AFFD81460028E5D15C
:10136000222384F84130402384F842300E9B60648D
:1013700063626063A4F82AA00196CDF800805B4602
:10138000039A39462046FFF759FE10B184F8409081
:10139000CCE7638D9BB2FF2B364B58D9FF220093CD
:1013A00022854FF0807339462046FFF76BFD00968B
:1013B0004346002204212046FFF77EFD0028B5D1D8
:1013C0002268636A526A1A70636A228D013363620B
:1013D000638D013B9BB26385638D013A92B29BB2F0
:1013E0002285ABB1A2B90096434680212046FFF783
:1013F00063FD00289AD1638D9BB2FF2B2FD9FF226A
:10140000228500904FF0807339462046FFF73AFD61
:10141000638D9BB2002BCAD1324641462046FFF76E
:101420003FFE002882D123682021D9615A6822F02A
:10143000FF7222F48B3222F4FF7222F001025A6012
:1014400084F8411084F8400084F842006FE7628D10
:10145000009392B222854FF00073D2B2A3E7628D5F
:10146000009092B222854FF00073D2B2CCE70220F6
:101470005DE700BF0024008090F84120D2B2202A0E
:1014800010B51DD190F84030012B19D0242380F8DD
:10149000413003681C6824F001041C601C6824F4BB
:1014A00080541C601C6821431960196841F00101D7
:1014B0001960002380F8412080F84030184610BDA4
:1014C000022010BD10B590F84140E4B2202C1CD190
:1014D00090F84030012B18D0242380F84130036865
:1014E0001A6822F001021A601A6822F4706242EA55
:1014F000012119601A6842F001021A60002380F885
:10150000414080F84030184610BD022010BD000058
:10151000024B186800F4C060704700BF00700040C4
:10152000174B1A68B0F5007F02F4C0621CD1B2F507
:10153000007F15D01A6822F4C06242F400721A606B
:10154000104A116832224A430F49B2FBF1F21946A0
:1015500001325869400500D522B94B695B050DD4AD
:1015600000207047013AF4E7B2F5806F1FBF1A6898
:1015700022F4C06242F480621A60F1E703207047EF
:10158000007000407801002040420F0037B51E4D2A
:10159000AB6DDA00044618D5FFF7BAFFB0F5007F4F
:1015A00023D1802C29D9A02C8CBF02200120174ADE
:1015B000136823F0070303431360136803F0070362
:1015C000181A18BF012003B030BDAB6D43F0805333
:1015D000AB65AB6D03F080530193019BFFF798FF60
:1015E000AB6D23F08053AB65D8E7802C07D808D0CB
:1015F000A4F1700358425841D9E70020D7E70320EF
:10160000D5E70220D3E700BF0010024000200240CF
:10161000224B9A68D96812F00C0205D00C2A15D119
:1016200001F00301012918D119681D48090755BFA8
:10163000D3F894101968C1F30321C1F3031150F8D2
:1016400021004AB30C2A09D000207047042A22D076
:10165000082A144818BF002070470020DA6802F0FA
:101660000302022A15D00F49032A08BF0846DA6888
:10167000D968DB68C3F34163C1F30621C2F30212E8
:101680000133484301325B00B0FBF2F0B0FBF3F0F2
:1016900070470548EBE70448704700BF0010024060
:1016A000D448000800127A000024F4002DE9F74322
:1016B000054608B9012047E0A64C0368A668E7681C
:1016C000DB0606F00C0607F0030773D51EB10C2EDF
:1016D00052D1012F50D12368980702D5AB69002B56
:1016E000E8D02368286A190756BFD4F894302368D5
:1016F0001B0903F0F003834229D2FFF747FF0028BC
:10170000D8D1236843F00803236023682A6A23F0B2
:10171000F003134323606368EA6923F47F4343EAD9
:1017200002236360FFF774FFA3688B4AC3F30313BC
:10173000D35C03F01F03D840884B1860884B1868AF
:10174000FFF7D8F9002835D003B0BDE8F08323684F
:1017500043F008032360236823F0F003034323606E
:101760006368EA6923F47F4343EA02236360FFF777
:101770000DFF0028D6D09DE7AB69002B36D023683B
:1017800043F001032360FFF7F7F9804623689A07C7
:1017900024D5236843F00803236023682A6A23F0D2
:1017A000F003134323606368EA6923F47F4343EA49
:1017B000022363602B68D80729D42B68990767D464
:1017C0002B68180700F19C802B68590700F1CA802C
:1017D000A86A002840F033810020B5E7FFF7CCF974
:1017E000A0EB08000228D1D90320ADE7236823F03D
:1017F00001032360FFF7C0F9804623689B07D9D512
:10180000FFF7BAF9A0EB08000228F6D9ECE7082E9A
:1018100003D00C2E08D1032F06D123689A03CCD510
:101820006B68002BC9D145E76B68B3F5803F10D1D9
:10183000236843F480332360FFF79EF980462368D2
:101840009B03BAD4FFF798F9A0EB08006428F6D9F7
:10185000CAE7B3F5A02F04D1236843F480232360A3
:10186000E6E7226822F480322260226822F4802295
:101870002260002BE0D1FFF77FF9804623689803B0
:101880009BD5FFF779F9A0EB08006428F6D9ABE700
:10189000042E03D00C2E10D1022F0ED1236859052F
:1018A00003D5EB68002B3FF405AF63682A6923F08A
:1018B000F85343EA0263636082E7EB687BB1236815
:1018C00043F480732360FFF757F9074623685A05EE
:1018D000EBD4FFF751F9C01B0228F7D984E723683E
:1018E00023F480732360FFF747F9074623685B05FD
:1018F0007FF566AFFFF740F9C01B0228F6D973E702
:101900006B699BB1D4F8943043F00103C4F8943070
:10191000FFF732F90746D4F894309A073FF554AFF1
:10192000FFF72AF9C01B0228F5D95DE7D4F89430F7
:1019300023F00103C4F89430FFF71EF90746D4F8EA
:1019400094309B077FF540AFFFF716F9C01B0228C4
:10195000F5D949E700100240C4480008780100208A
:1019600004000020A36DD80029D4A36D43F0805358
:10197000A365A36D03F080530193019B4FF0010811
:10198000794F3B68D9051DD5AB68012B2BD1D4F815
:10199000903043F00103C4F89030FFF7EDF841F2C6
:1019A00088390746D4F890309B0742D5B8F1000F2C
:1019B0003FF40EAFA36D23F08053A36508E74FF00B
:1019C0000008DDE73B6843F480733B60FFF7D4F821
:1019D00081463B68DA05D7D4FFF7CEF8A0EB0900C3
:1019E0000228F6D900E7052B06D1D4F8903043F051
:1019F0000403C4F89030CAE7D4F8902022F0010222
:101A0000C4F89020D4F8902022F00402C4F890206A
:101A1000002BC2D1FFF7B0F841F288390746D4F85D
:101A200090309807C2D5FFF7A7F8C01B4845F6D9F4
:101A3000DAE6FFF7A1F8C01B4845B3D9D4E60C2E6F
:101A40005CD02368022823F0807323603BD1FFF72A
:101A500093F80646236899012FD4E268434B13405C
:101A6000EA6A13436A6B43EA02232A6B013A43EAA8
:101A70000213AA6B120943EA4243EA6B5208013A85
:101A800043EA42532A6C5208013A43EA4263E36054
:101A9000236843F080732360E36843F08073E3605E
:101AA000FFF76AF8054623689A013FF595AEFFF700
:101AB00063F8401B0228F6D996E6FFF75DF8801B15
:101AC0000228C7D990E6236813F0205F02BFE368BD
:101AD00023F00303E360E36823F0887323F4803387
:101AE000E360FFF749F8054623689B017FF574AE74
:101AF000FFF742F8401B0228F6D975E601283FF4AB
:101B000023AEE368EA6A03F0030191427FF4D2ADA9
:101B1000296B03F070020139B2EB011F7FF4CAADEB
:101B2000696B03F4FE42B2EB012F7FF4C3ADAA6BE5
:101B3000073A03F4003118BF012291427FF4BAAD95
:101B4000EA6B520803F4C001013AB1EB425F7FF443
:101B5000B1AD2A6C5208013A03F0C063B3EB426F97
:101B600014BF01200020EFE5007000408C809DF93B
:101B70002DE9F0410E46044610B90120BDE8F08180
:101B8000414A136803F007038B422AD32368D9071D
:101B900032D421688A075CD43B4A136803F00703F8
:101BA0009E425ED311F0040F384D65D10B0706D568
:101BB000AB68226923F4605343EAC203AB60FFF7CA
:101BC00027FDAB68324AC3F30313BDE8F041D35C91
:101BD00003F01F03D8402F4B18602F4B1868FEF7F7
:101BE00089BF136823F007030B431360136803F0E6
:101BF00007039942C1D1C9E76268244D032A2B68C3
:101C00001BD113F0007FB8D0AB6823F0030313435C
:101C1000AB60FEF7B1FF41F288380746AB686268F7
:101C200003F00C03B3EB820FB3D0FEF7A5FFC01B8C
:101C30004045F3D90320BDE8F081022A02D113F414
:101C4000003FE0E712B913F0020FDCE713F4806FF6
:101C5000D9E70E4AA068936823F0F003034393602A
:101C60009AE7136823F0070333431360136803F004
:101C700007039E4281D195E7AB68E26823F4E063F5
:101C80001343AB6092E700BF002002400010024007
:101C9000C44800087801002004000020F8B5454B36
:101CA000DA6812F0030F05460E461C4600682AD07B
:101CB000DA6802F0030282423CD1002A3AD0DB68A3
:101CC0006A68C3F302130133934233D1236823F0CC
:101CD00080632360FEF750FF074623681A0132D461
:101CE000AF68002E36D0012E50D12269286922F427
:101CF000C002400822F4FE42013842EA072242EACA
:101D00004052226132E0022810D0032814D001286A
:101D100010D11B689F0738D5E3686A6823F0730306
:101D2000013A184340EA0210E060CFE71B6813F461
:101D3000806FF1D10120F8BD1A689103ECD41B68C3
:101D400013F4802FF5E7FEF717FFC01B0228C4D954
:101D50000320F8BD2169EB6821F41F3121F44071A3
:101D600041EA07211B0941EA43412161236843F00D
:101D700080632360FEF700FF064623681B0113D52E
:101D80002369AA69134323610020F8BD23696869A8
:101D900023F0C063400823F4FE43013843EA0723DD
:101DA00043EA40632361E1E7FEF7E6FE801B022879
:101DB000E3D9CDE700100240F8B53D4BDA6812F0E8
:101DC000030F05460E461C46006828D0DA6802F06C
:101DD000030282423AD1002A38D0DB686A68C3F332
:101DE00002130133934231D1236823F080532360DF
:101DF000FEF7C2FE074623689A0030D4A868002E7A
:101E000034D06369296923F0C063490823F4FE4391
:101E1000013943EA002343EA4163636132E0022867
:101E200010D0032814D0012810D11B689F0738D583
:101E3000E3686A6823F07303013A184340EA02102A
:101E4000E060D1E71B6813F4806FF1D10120F8BD89
:101E50001A689103ECD41B6813F4802FF5E7FEF7A2
:101E60008BFEC01B0228C6D90320F8BD6269EB684F
:101E700022F41F3222F4407242EA00221B0942EA95
:101E800043426261236843F080532360FEF774FE8F
:101E9000064623689B0005D563696A69134363613D
:101EA0000020F8BDFEF768FE801B0228F1D9DBE7B1
:101EB000001002402DE9F347066816F40066044658
:101EC00024D0416EB1F5800F2CD002D8C1B10126CB
:101ED0001CE0B1F5000F0DD0B1F5400FF7D14D4A20
:101EE000616ED2F8883023F440030B43C2F8883087
:101EF00000260BE0474AD36843F48033D360EEE713
:101F00000430FFF7CBFE06460028E8D02368D8044B
:101F100006D5A16EB1F1807F74D008D8A9B1012691
:101F2000354621E000212030FFF746FFEBE7B1F115
:101F3000007F04D0B1F1407FF1D1354609E0354A48
:101F4000D36843F48033D360F7E7201DFFF7A6FE84
:101F50000546002D5CD12F4AA16ED2F8883023F0BF
:101F600040730B43C2F888302368990340F14F81D6
:101F7000284FBB6DDA0040F176814FF00008DFF8A2
:101F80009890D9F8003043F48073C9F80030FEF718
:101F9000F3FD8246D9F80030DB053FD5002D44D152
:101FA000D7F8903013F4407315D0D4F884209342BE
:101FB00011D0D7F89030D7F8902042F48032C7F88B
:101FC0009020D7F8902023F4407322F48032C7F891
:101FD0009020C7F89030D80709D5FEF7CDFD41F223
:101FE00088390546D7F89030990740F10981D7F82C
:101FF0009030D4F8842023F440731343C7F8903012
:10200000354612E0002104F12000FFF7D5FE9FE7DE
:102010002E46A9E70010024000700040FEF7ACFD1C
:10202000A0EB0A000228B5D90325B8F1000F03D0B0
:10203000BB6D23F08053BB652368DA0708D5904950
:10204000A06BD1F8882022F003020243C1F8882057
:102050009F0708D58A49E06BD1F8882022F00C024E
:102060000243C1F888205E0708D58549206CD1F865
:10207000882022F030020243C1F88820180708D5D2
:102080007F49606CD1F8882022F0C0020243C1F879
:102090008820D90608D57A49A06CD1F8882022F486
:1020A00040720243C1F888209A0608D57449E06C52
:1020B000D1F8882022F440620243C1F888209F05AD
:1020C00008D56F49E06DD1F8882022F44022024300
:1020D000C1F888205E0508D56949206ED1F88820AE
:1020E00022F440120243C1F88820580608D56449FA
:1020F000206DD1F8882022F440520243C1F8882094
:10210000190608D55E49606DD1F8882022F4404256
:102110000243C1F88820DA0508D55949A06DD1F8E5
:10212000882022F440320243C1F888209B040FD556
:10213000534AE16ED2F8883023F040630B43B1F18B
:10214000006FC2F8883064D1D36843F48013D36041
:1021500023681F030FD54A4A216FD2F8883023F035
:1021600040630B43B1F1006FC2F888305CD1D36893
:1021700043F48013D36023685E030FD5404A616F38
:10218000D2F8883023F040630B43B1F1006FC2F8FE
:10219000883054D1D36843F48013D3602368580443
:1021A00012D53749A26FD1F8883023F0405313433A
:1021B000B2F1805FC1F888304CD10221201DFFF7B9
:1021C0006DFD002818BF05462268110408D52C496A
:1021D000E06FD1F8883023F080430343C1F88830A2
:1021E000D30309D5264AD4F88010D2F8883023F0DA
:1021F00000430B43C2F88830284602B0BDE8F087A0
:10220000FEF7BAFC401B48457FF6ECAE0CE73546BE
:1022100012E7B1F1806F9BD10121201DFFF73EFD38
:10222000002818BF054693E7B1F1806FA3D10121C3
:10223000201DFFF733FD002818BF05469BE7B1F1CD
:10224000806FABD10121201DFFF728FD002818BFAA
:102250000546A3E7B2F1005FB6D1022104F12000E8
:10226000FFF7AAFDADE7BB6D43F08053BB65BB6DC7
:1022700003F080530193019B4FF001087FE600BFFC
:1022800000100240704770B5044600284AD0002371
:10229000836290F85D3003F0FF021BB980F85C2088
:1022A000FFF7F0FF0223216884F85D300B68E268D5
:1022B00023F04003B2F5E06F0B604FF000032ED91E
:1022C0001846B2F5706F18BFA362236B2BB9B2F535
:1022D000E06F8CBF022301232363A6686368A569AE
:1022E00033432669334366693343E6693343266AD9
:1022F0003343A66A334305F4007633430B60636AC5
:102300001A43636B2D0C1A4305F004052A4302435C
:10231000012300204A60206684F85D3070BD4FF4D0
:102320008050D0E7012070BD1FB5084B80221A7085
:10233000074B19884FF0FF338DE80D000123054846
:10234000FEF7DCFF05B05DF804FB00BFFC010020D8
:1023500008000020440200202DE9F047264F274DB9
:10236000DFF8A08086B04FF0000901244FF0FF365F
:1023700000F072FE398822480296019400952346A7
:102380004A4688F8009085F80090FEF700FF8246E4
:1023900028B1CDF81490059B01330593FBE73F234B
:1023A00039882B70224623460296019400951448E2
:1023B00088F80040FEF7EBFE3988114802960322A8
:1023C00023460194009588F8002085F800A0FEF7C8
:1023D000DEFE39880A4802960222234601940095BF
:1023E00088F8002085F800A0FEF7D1FE6420FEF7F3
:1023F000C9FB06B0BDE8F08708000020FD01002001
:1024000044020020FC01002010B50446A0B068463C
:10241000FFF78AFF9DF800205AB99DF8013033B9C3
:102420009DF8022032B99DF80330002BEFD01346FF
:1024300000E00023B5EE007AC3F13F0103F007028C
:1024400021F0070111440DEB430204EB81015078A8
:102450001DF8132042EA002242F30B0207EE902AF5
:10246000F8EEE77A013367EE877A402BC1ED007A08
:10247000E2D120B010BD00001FB50A4B0A4C0B483A
:102480000E221A7000232380094B198800944FF004
:10249000FF330293022301930123FEF72FFF2088CD
:1024A00004B010BDFC0100201C02002044020020EA
:1024B00008000020000000002DE9F047F0EE407A0F
:1024C000FEEECF7AFEEECF0A88B010EE100ACDED08
:1024D000057ACDED060AFEF72FF839A3D3E90023DC
:1024E000FEF77EF80022324B324DDFF8DC90324F9F
:1024F000324EFEF775F8FEF785FA0790059B2B70B4
:10250000059BB9F80010009501244FF0FF38C3F384
:1025100003236B700822234605EB040ACDF80880DC
:10252000019438463270FEF732FE0922B9F80010E5
:10253000CDF8088023460194CDF800A038463270CB
:10254000FEF725FE069B2B70069BB9F80010CDF810
:102550000880C3F303236B700A222346019400957D
:1025600038463270FEF713FE0B22B9F80010CDF892
:10257000088023460194CDF800A038463270FEF75B
:1025800006FE079B2B70079BB9F80010CDF808805A
:10259000C3F303236B700C22234601940095384645
:1025A0003270FEF7F4FD0D23337008B0BDE8F087FC
:1025B00000001040FD01002044020020FC0100202A
:1025C000666666666666EE3F080000201FB5094B2A
:1025D000094803221A70094B027019884FF0FF3323
:1025E000029301238DE809000548FEF7D0FD05B0F0
:1025F0005DF804FBFC010020FD0100200800002024
:10260000440200201FB50A4A01231370094A3021F1
:10261000117009494FF0FF30098802908DE80C00D5
:1026200006481A46FEF7B3FD05B05DF804FB00BF8F
:10263000FC010020FD0100200800002044020020D1
:102640001FB5094B10221A70084B19884FF0FF3341
:10265000029308238DE8090001230548FEF74EFE8A
:1026600005B05DF804FB00BFFC010020080000205D
:102670004402002038B5184B184C19880546002232
:102680005868FEF7DFFB0022B4F85410A06DFEF787
:10269000D9FB2946124D134800F0F0FE29886868DE
:1026A0000122FEF7CFFB298868680F4D0022FEF754
:1026B000C9FB298868680022FEF7C4FB298868687E
:1026C0000122FEF7BFFBB4F85410A06D0122BDE853
:1026D0003840FEF7B7BB00BF98000020080100207B
:1026E0007C000020D89B0020B400002010B50446D8
:1026F000012000F067FA4FF4784000F06FFA0020F4
:1027000000F066FA8021084600F01CFA23206421BC
:1027100000F03EFA2046BDE8104000F065BA000027
:102720002C4B2DE9F0472C4C2C4F012206460D4630
:1027300058681988FEF786FB0022B4F85410A06D83
:10274000FEF780FB3B681A6842F040021A609A6804
:10275000D00735D4013DDFF888A0DFF8889006F176
:10276000FF383544A8452DD03B689A689107FCD5C1
:1027700018F8012F1A739A68D207FCD5DA689E6898
:1027800016F08006FBD1BAF80010DAF80400012236
:10279000FEF758FB3246BAF80010DAF80400FEF7EC
:1027A00051FB3246B9F80010D9F80400FEF74AFB95
:1027B0000122B9F80010D9F80400FEF743FBD1E775
:1027C000DA68C4E7B4F85410A06D0122BDE8F04700
:1027D000FEF738BB9800002008010020D89B00209D
:1027E0007C000020B400002007B502AB012103F8F3
:1027F000010D1846FFF794FF03B05DF804FB0000DD
:1028000010B58B4C002221886068FEF71BFB894BBA
:102810000122B3F85410986DFEF714FB864B012289
:1028200019885868FEF70EFB844B012219885868F6
:10283000FEF708FB218860680122FEF703FB3220C7
:10284000FEF7A0F9D720FFF715FF9F20FFF7CCFF79
:10285000E020FFF70FFF0020FFF7C6FF0520FEF77F
:1028600091F9FA20FFF706FF0120FFF7BDFF0520D1
:10287000FEF788F9E320FFF7FDFE0520FEF782F959
:10288000E120FFF7F7FE2820FFF7F4FE1120FFF705
:10289000F1FE0520FEF776F9C020FFF7EBFE1720CA
:1028A000FFF7A2FF0120FFF79FFF2520FFF7E2FEC1
:1028B0001E20FFF799FFC320FFF7DCFE0320FFF780
:1028C00093FFC420FFF7D6FE0720FFF78DFFC5203A
:1028D000FFF7D0FE0120FFF787FFCB20FFF7CAFEEE
:1028E0000120FFF781FFB720FFF7C4FE0020FFF7AC
:1028F0007BFFD020FFF7BEFE1D20FFF775FFB52040
:10290000FFF7B8FE8920FFF76FFFBD20FFF7B2FE8B
:102910000220FFF769FFF020FFF7ACFE0720FFF76A
:1029200063FF0C20FFF760FF0C20FFF75DFF122014
:10293000FFF75AFFF420FFF79DFE3320FFF754FF07
:102940003320FFF751FF3320FFF74EFF0020FFF742
:102950004BFF3320FFF748FF6620FFF745FF662057
:10296000FFF742FF6620FFF73FFF2020FFF782FEC0
:102970002A20FFF77FFE0020FFF736FF7F20FFF7BA
:1029800033FF2B20FFF776FE0020FFF72DFF7F207F
:10299000FFF72AFF3A20FFF76DFE0520FFF724FF1F
:1029A0003620FFF767FE8020FFF71EFFB020FFF7FD
:1029B00061FE7F20FFF718FF2920FFF75BFEF9205B
:1029C000FFF758FE0020FFF70FFF0220FFF70CFF74
:1029D0000420FFF709FF0620FFF706FF0820FFF796
:1029E00003FF0A20FFF700FF0C20FFF7FDFE0E207B
:1029F000FFF7FAFE1020FFF7F7FE1220FFF7F4FEB4
:102A00001420FFF7F1FE1620FFF7EEFE1820FFF767
:102A1000EBFE1A20FFF7E8FE1C20FFF7E5FE1E2064
:102A2000FFF7E2FE2920BDE81040FFF723BE00BFFC
:102A30007C0000200801002098000020B400002045
:102A400037B58DF804002A201C468DF805200D4668
:102A5000FFF710FE022101A8FFF762FE2B208DF880
:102A600004508DF80540FFF705FE022101A8FFF78D
:102A700057FE03B030BD13B58023002104461A462B
:102A80000846FFF7DDFF2C20FFF7F4FD8DF804402A
:102A9000240A8DF805404FF48044022101A8FFF775
:102AA0003FFE013CF9D102B010BD0000F0B5047842
:102AB0001F2C08D8073C062C14D8062111700822B8
:102AC0001A700120F0BD24060CD4084E00240627FD
:102AD0000578203D07FB05652D5D0D550134062C5D
:102AE000F6D1EAE76FF00100F0BD00BF2346000811
:102AF000114BB3F900301B18F0B513D40F4CB4F9D7
:102B00000040A3420EDC002A8BB203EB02040C4D02
:102B1000ACBF01224FF0FF3224B292B280B2F8264D
:102B20008C4200D1F0BD00EBC3171144134425F8CB
:102B3000176009B29BB2F3E7360200204002002082
:102B4000D81B00200A4B421E1A800A4B4A1E1A80CC
:102B5000094B0A4A02381880094B023919800123AF
:102B60001370084A08491160084A1380704700BF73
:102B7000400200203E0200203202002028020020F5
:102B80003A02002024020020AD2A00083002002072
:102B9000084BB3F900309842A8BF1846064B18807E
:102BA000064BB3F900309942A8BF1946044B19806F
:102BB000704700BF400200202A0200203E02002091
:102BC00020020020014B1870704700BF280200202F
:102BD000014B1880704700BF2C020020014B188069
:102BE000704700BF2E0200202DE9F04F8BB020224D
:102BF0000190002102A800F04DFD019B1B7813B944
:102C00000BB0BDE8F08F824E824B834D1F68019858
:102C10002B46324602A9B847019B1B78DA1F062AC9
:102C2000019AC0B20244B14614460ED80A2B0AD10A
:102C30007A4B287800221A80794A7A4B11881B78BF
:102C400000FB031313800194D7E77749754B01927A
:102C5000724AB1F900E01B783178B2F9007001FBDB
:102C600013E18F426E4F06DD0021118039882A78EA
:102C700002FB03123A802A786C4DB7F90010B5F9BF
:102C8000005003FB12539942BADC012849D90026AF
:102C900002ABF5B205F0010813F806B04FEAC80818
:102CA0006D0800274BFA07F3D9070FD40137082F17
:102CB000F8D10136202EEBD1554B584A1878594B94
:102CC00011881B7800FB0313138096E708EB070AB3
:102CD0001FFA8AFA4FF00009524B1A785FFA89F00E
:102CE000824209F10109E1D9514C4D49B4F800E0A3
:102CF0000988A1EB0E01DFF824E1BEF800C0DFF87F
:102D000034E1BEF800E093B203FB0511ACEB0E0E0C
:102D100013FB0AF39E44704409B200B2FFF7E8FEC9
:102D2000DAE7102A1FD0002799F80030FEB2B3422C
:102D3000C2D90AAB3344DFF8ECB013F820AC00255D
:102D40004AFA05F3DB0709D54FF000089BF800208D
:102D50005FFA88F0824208F101083CD80135082D5D
:102D6000EED10137E0E7DFF8BC90002502AB00268A
:102D700013F805A04AFA06F3DA070BD5DFF8B4B06A
:102D80004FF0000899F800205FFA88F0824208F1BD
:102D9000010806D80136082EECD10135102DE5D1F9
:102DA0008AE7234C3988B4F800E01C4C93B2A1EBBD
:102DB0000E0115FB03FE7144B4F800C0BBF800E03F
:102DC00016FB03F3ACEB0E0E9E44704409B200B246
:102DD000FFF78EFED6E7164C1149B4F800E00988DB
:102DE0000E4CDFF850C093B2A1EB0E0115FB03FEB1
:102DF0007144BCF800C0B4F800E0AEEB0C0E06FB6A
:102E000003E3184409B200B2FFF772FE9EE700BF69
:102E10003902002024020020380200202A0200206B
:102E20002002002028020020320200203A02002066
:102E30003C0200203602002030B5B9B0FDF780FE1C
:102E40004422002105A800F025FC14220021684638
:102E500000F020FC0021882216A800F01BFC1022A4
:102E60000992012211920A2202234FF480751292D4
:102E700005A80722002405930F931093139214932F
:102E800015930895FEF712FC0F22032304216846D0
:102E90008DE81C0003940494FEF76AFE16A81695AC
:102EA0002C94FFF707F84FF40070FEF739FB00F0A1
:102EB00055F800F0ADFA39B030BD000010B5164C31
:102EC00021886068FDF7B8FF50B9144B01221988BA
:102ED0005868FDF7B7FF012221886068FDF7B2FF4F
:102EE0000F4C21886068FDF7A7FF024648B90B4BDD
:102EF00019885868FDF7A6FF012221886068FDF750
:102F0000A1FF084B19885868FDF796FF10B9064BCA
:102F100001221A7010BD00BF2800002060000020B0
:102F2000440000200C0000200402002010B50446DC
:102F300086B01422002101A800F0ACFB2388019385
:102F4000A3680293E36803932369049301A9636967
:102F500060680593FDF794FE06B010BD334BDA6C44
:102F60002DE9F34742F00402DA64DA6CDFF8D0901E
:102F7000DFF8D080DFF8D0A02D4F2E4E2E4D2F4CF5
:102F800002F004020092009ADA6C42F00102DA6464
:102F9000DB6C03F0010301934846019BFFF7C6FF7A
:102FA0004046FFF7C3FF5046FFF7C0FF3846FFF724
:102FB000BDFF3046FFF7BAFF2846FFF7B7FF2046B0
:102FC000FFF7B4FFBAF80010DAF804000022FDF7AA
:102FD00039FFB9F80010D9F804000122FDF732FFDB
:102FE000B8F80010D8F804000122FDF72BFF39884B
:102FF00078680122FDF726FF318870680122FDF70D
:1030000021FF298868680122FDF71CFF218860687C
:103010000122FDF717FF002211461720FDF7D8FD0A
:103020001720FDF709FE02B0BDE8F087001002404E
:1030300098000020B40000207C0000200C0000203C
:1030400044000020280000206000002082B00023FF
:103050000193019B0133FBE713B51D4C1D48E36C45
:1030600043F00403E364E36C03F004030093009B68
:10307000FFF75CFF1848FFF759FFA36D174A43F4A9
:103080000003A365A36D164C03F400030193019B99
:10309000144B204684E80C0000230122A360E26068
:1030A00023616361A361E3612362FEF71FF80146B8
:1030B00008B1FFF7CBFF2046FEF7DEF901460028F6
:1030C000F7D12046FEF7FEF90028F2D102B010BD7C
:1030D00000100240D0000020EC000020005C004006
:1030E00044020020912970002DE9F04FC9B008ADCD
:1030F00000214FF4807228464E4CDFF85081009139
:10310000302601912A2700F0C5FA3F230120C3F1A0
:103110003F02D210009203F0070201920099DDF8FD
:1031200004E0095D019A00FA0EFE01EA0E0100FAC0
:1031300002F291424FEAE30203F0070108EBC202F8
:103140000CBF5754565413F1FF33E0D2DFF800910F
:1031500000274FF0010A4FEAC70B0BF1FF3444443C
:1031600000266178484600F09DFA14F8013F2A2BAA
:1031700008BF0BEB060306F1010608BF45F823A0C4
:10318000082EEED12C48013700F000FB082FE2D1C9
:1031900000242A492646F82722114FEAC41E00239C
:1031A000D20002EB231055F82000012803EB0E009B
:1031B00003F101030CBF21F8107021F81060802B7F
:1031C000EFD10134802CE7D11D4A9FED1E7A1068A3
:1031D0005168127A04AB03C31A701B4BD3ED007A0B
:1031E00067EE877A0025FDEEE77A0A2217EE900A4D
:1031F00002A9CDF81950ADF81D5002958DF80C506C
:1032000000F046FA02A904A800F0C8FA04A8FFF7E3
:103210006DFA2346224629462846FFF711FC2C204A
:10322000FFF728FA4FF400410448FFF779FA49B054
:10323000BDE8F08F9002002069480008D81B0020EC
:10324000144600080000C84200020020980B00202D
:103250006348000810B500234FF06044934201DB3F
:10326000104610BDD4F8800EC00703D5D4F8000E68
:10327000C00702D40133F1E700BF20680028FBD06B
:10328000C85C2070F6E700002DE9F843DFF85080B5
:10329000DFF850902DED028B9FED108A0746002439
:1032A00007EB44160025F6EC017A67EE887A2A4689
:1032B000FDEEE77A214617EE903A4046013500F0E0
:1032C000F1F9082DEFD14846013400F05FFA082CDF
:1032D000E6D1BDEC028BBDE8F88300BF0000C84218
:1032E000B54800086948000880B5FFF7A5FDFFF75D
:1032F00033F8FFF785FA4FF4F850FFF7BCFB4FF4B3
:103300008072002129482A4D284C2A4F00F0C2F92A
:103310004FF400620021284800F0BCF9F2EE0E0ADA
:10332000B3EE080AFFF7C8F8FFF750F900262B782C
:103330005BB12248FFF784F9214800F027FAFFF734
:10334000D3FEFFF75FF900232B702046FFF75CF8F0
:103350001C4800F01BFA2046FFF796FFFFF78CF899
:10336000FDF7D8F832463B46FDF73AF9FDF772FB18
:10337000154B1860D3ED007A144BB3EE097A77EE53
:10338000C77AC3ED007A93ED000AD3ED000AF2EE9E
:103390000E7A70EEA70AF3EE087A30EE270AFFF7EE
:1033A0008BF80020FFF767FBC1E700BF980A0020F9
:1033B000040200200000B03F98020020900200208C
:1033C0006B4800089C48000800020020080200200A
:1033D0000D480E4B4FF4E0624FF4827CC2604FF414
:1033E000802280E808108261002318228360036134
:1033F0004361C2610362436283620722036308235D
:10340000C2624363FEF73FBFD89B002000300140FB
:10341000174B1A6E13B542F480521A661A6E154C89
:1034200002F480520092009ADA6C42F00102DA64EF
:10343000DB6C03F0010301932046019BFFF776FD4F
:1034400004F13800FFF772FD04F15400FFF76EFD40
:103450000122B4F85410A06DFDF7F4FCFFF7B8FF9B
:10346000054B1A68136843F04003136002B010BDA7
:103470000010024008010020D89B002003681A6851
:1034800042F040021A609A68D2070CD49A689207F8
:10349000FCD5197303689A68D107FCD5DA689A6875
:1034A0001206FCD47047DA68EDE700000A4B1A6E8A
:1034B00042F001021A661A6E82B002F00102009216
:1034C000009A9A6D42F080529A659B6D03F080538A
:1034D0000193019B02B07047001002407047FEE765
:1034E000FEE7FEE7FEE7704770477047FDF738BB21
:1034F00008B52020FDF7ACFC4020FDF7A9FC80209A
:10350000BDE80840FDF7A4BC70B50E4615460C4654
:10351000A31B9D4201DC284670BDAFF3008004F878
:10352000010BF5E708B50A4B1968024609B90949C4
:1035300019601868694602448A4206D900F066F8A4
:103540000C2303604FF0FF3008BD1A6008BD00BFB8
:103550000C020020409C00204FF0FF3070474FF4D9
:1035600000534B60002070470120704700207047D7
:103570000F49D1F8883043F47003C1F888300D4BFF
:103580001A68002042F001021A6098601A6822F05E
:10359000A85222F410221A604FF48052DA601A689E
:1035A00022F480221A6098614FF000638B607047AC
:1035B00000ED00E000100240DFF834D0002103E00D
:1035C0000C4B5B58435004310B480C4B42189A4249
:1035D000F6D30B4A02E0002342F8043B094B9A421F
:1035E000F9D3FFF7C5FF00F017F8FFF77DFEFEE700
:1035F00000800120CC49000800000020E0010020EC
:10360000E0010020409C0020FEE70000014B18680C
:10361000704700BF7C01002070B50D4E0D4CA41BFF
:10362000A4100025A54209D10B4E0C4C00F0E6FF7A
:10363000A41BA4100025A54205D170BD56F8253065
:1036400098470135EEE756F8253098470135F2E7FF
:10365000C4490008C4490008C4490008C849000812
:10366000931E222B10B50C4604D900230B701C4668
:10367000204610BD0A2A09D1002807DA2D230B7035
:1036800040420121214400F099F8F1E70021F9E7D7
:10369000FFF7E6BF02440346934200D1704703F8A8
:1036A000011BF9E70FB40A4B13B51C6824B1A369D9
:1036B00013B9204600F074FA05AB049AA16801938F
:1036C000204600F031FC02B0BDE8104004B0704765
:1036D0007C01002070B50E46054618B183690BB910
:1036E00000F05EFAAB69AC6813B9284600F058FAEE
:1036F000234B9C4217D16C68A3891B071DD52369F6
:10370000DBB1013EA36816F8011F013BA360E9B9D4
:10371000002B2EDA22460A21284600F08FF80130CD
:1037200011D00A2070BD174B9C4201D1AC68E3E771
:10373000154B9C4208BFEC68DEE72146284600F0A6
:10374000CFF80028DDD04FF0FF3070BD002B04DA39
:10375000A269934206DB0A2904D023685A1C22601E
:103760001970CFE72246284600F068F80130C9D129
:10377000E9E723680A205A1C2260187070BD00BF58
:10378000504900087049000830490008024B0146C2
:103790001868FFF79FBF00BF7C01002010B50246EC
:1037A000134601321C78002CFAD1013B11F8012B91
:1037B00003F8012F002AF9D110BD0000F0B51E4C0E
:1037C0008BB003460F466D4604F1200E20686168F9
:1037D0002E4603C6083474453546F7D12179317138
:1037E000911E2068306022294FF0000104D9397001
:1037F0000F4638460BB0F0BD781E0646B3FBF2F517
:103800000DF1280E02FB153373444C1C13F8283CB1
:1038100006F8013F2B4665B93D557A18CC1AA342EC
:10382000E7DA4478157800F8015F013302F80149BE
:10383000F4E72146E2E700BF08490008F8B50E4664
:103840001446054618B183690BB900F0A9F9214B5C
:103850009C422AD16C68A369A360A3891A072ED55C
:10386000236963B323692068C01A6369F6B298427A
:10387000374604DB2146284600F028F928BBA36818
:10388000013BA36023685A1C22601E7063690130EB
:10389000984204D0A389DB0719D50A2E17D12146F7
:1038A000284600F013F990B10FE00B4B9C4201D178
:1038B000AC68D0E7094B9C4208BFEC68CBE72146D7
:1038C000284600F00DF80028CCD04FF0FF373846DE
:1038D000F8BD00BF50490008704900083049000891
:1038E000324B70B51D6806460C4625B1AB6913B95D
:1038F000284600F055F92E4B9C420FD16C68B4F964
:103900000C309AB215072CD4D00611D4092232609B
:1039100043F04003A3814FF0FF3070BD254B9C4224
:1039200001D1AC68EBE7244B9C4208BFEC68E6E7AA
:10393000510712D5616B41B104F14403994202D0A1
:10394000304600F01BFA00236363A38923F02403AD
:10395000A3810023636023692360A38943F00803E4
:10396000A38123694BB9A38903F42073B3F5007FC6
:1039700003D02146304600F0C1F9A28912F00103BC
:103980000CD00023A36063695B42A361236953B930
:10399000B4F90C3013F08000BAD170BD920758BF53
:1039A0006369A360F2E70020F7E700BF7C01002015
:1039B0005049000870490008304900088A892DE9FB
:1039C000F041054610070C465AD44B68002B05DC25
:1039D0000B6C002B02DC0020BDE8F081E66A002EB3
:1039E000F9D0002312F480522F682B6033D0606D21
:1039F000A3895A0705D56368C01A636B0BB1236CA2
:103A0000C01A00230246E66A216A2846B047431CD2
:103A1000A38906D129681D294BD82B4ACA40D6074D
:103A200047D500226260D9042269226004D5421C75
:103A300001D12B6803B96065616B2F600029CAD082
:103A400004F14403994202D0284600F097F900207F
:103A50006063BDE8F081216A01232846B047411C1C
:103A6000C6D12B68002BC3D01D2B01D0162B01D142
:103A70002F60B0E7A38943F04003A381BDE8F08144
:103A80000F69002FA7D093070E6808BF4B690F601E
:103A900018BF0023A6EB07088B60B8F1000F9ADD72
:103AA00043463A46216AA66A2846B047002807DC02
:103AB000A38943F04003A3814FF0FF30BDE8F081BC
:103AC0000744A8EB0008E8E70100402038B50B697F
:103AD00005460C46DBB118B183690BB900F060F8FC
:103AE0000C4B9C4209D16C68B4F90C307BB1214677
:103AF0002846BDE83840FFF761BF074B9C4201D123
:103B0000AC68F1E7054B9C4208BFEC68ECE700208D
:103B100038BD00BF5049000870490008304900080E
:103B2000014900F0A9B800BFCD3A0008002310B544
:103B3000044603604360836081814366C281036100
:103B400043618361194608225C30FFF7A3FD054BF2
:103B50006362054BA362054BE362054B246223635A
:103B600010BD00BFA1440008C3440008FB44000886
:103B70001F45000870B54A1E682555430E4605F1DD
:103B8000740100F049F9044640B1002180E8420088
:103B90000C30A06005F16802FFF77CFD204670BD87
:103BA000836910B5044633BB8364C3640365124B59
:103BB000124A1B688262984204BF0123836100F0AD
:103BC0001FF86060204600F01BF8A060204600F05F
:103BD00017F80022E06004216068FFF7A7FF0122C8
:103BE0000921A068FFF7A2FF02221221E068FFF777
:103BF0009DFF0123A36110BD04490008213B00087B
:103C0000F8B51C4B1E68B369074613B93046FFF779
:103C1000C7FF4836B4687368013B03D5336833B1D6
:103C20003668F7E7B4F90C506DB16834F4E7042155
:103C30003846FFF79FFF30600028F1D10C233B602E
:103C400004462046F8BD4FF6FF73E3810123A381AC
:103C500065662560A560656025616561A5610822CE
:103C6000294604F15C00FFF715FD6563A563A564B3
:103C7000E564E6E7044900082DE9F84380468946F3
:103C800000F14804002614B93046BDE8F883A56861
:103C90006768013F01D52468F5E7AB89012B07D997
:103CA000B5F90E30013303D029464046C8470643D4
:103CB0006835EEE770B50E46B1F90E10002990B0E8
:103CC00014461D4607DA00232B60B3891A0610D468
:103CD0004FF480630EE001AA00F048FC0028F2DBFC
:103CE000029A02F47042A2F500535A425A412A60E5
:103CF000EEE740230020236010B070BD8B8973B5C0
:103D00009D0706460C4607D504F14703236023614F
:103D10000123636102B070BD01AB6A46FFF7CAFFC1
:103D200000990546304600F077F848B9B4F90C30F0
:103D30009A05EFD423F0030343F00203A381E3E7E2
:103D40000D4BB362A389206043F08003A381009BE5
:103D50006361019B20615BB1B4F90E10304600F045
:103D600017FC28B1A38923F0030343F00103A381C7
:103D7000A3891D43A581CDE7213B000838B5054641
:103D8000002945D051F8043C0C1F002BB8BFE418A3
:103D900000F020FC1F4A1368104633B963601460BA
:103DA0002846BDE8384000F016BCA3420CD9216873
:103DB0006218934204BF1A685B68636004BF5218BC
:103DC00022600460ECE713465A680AB1A242FAD9AD
:103DD00019685818A0420BD1206801445818824233
:103DE0001960DDD1106852685A6001441960D7E744
:103DF00002D90C232B60D3E7206821188A4204BF24
:103E000011685268626004BF091821605C60C7E7EE
:103E100038BD00BF1002002070B5CD1C25F0030591
:103E200008350C2D38BF0C25002D064601DBA942B4
:103E300003D90C233360002070BD00F0CBFB234A74
:103E40001468214691B9224C23681BB9304600F012
:103E500017FB20602946304600F012FB431C26D198
:103E60000C233360304600F0B6FBE4E70B685B1BC5
:103E70001AD40B2B0FD90B60CD50CC18304600F064
:103E8000AAFB04F10B00231D20F00700C31A1BD06E
:103E90005A42E25070BD8C420DBF63684B6863604C
:103EA000136018BF0C46E9E70C464968CAE7C41C12
:103EB00024F00304A04205D0211A304600F0E0FAB5
:103EC0000130CDD02560D9E770BD00BF10020020C1
:103ED000140200209368013B002B10B4936009DAB0
:103EE0009469A34202DBCBB20A2B03D15DF8044BE9
:103EF000FFF7A4BC1368581C10601970C8B25DF8B5
:103F0000044B7047F8B506460F461446D518AC4228
:103F100001D1002007E03A4614F8011B3046FFF7B4
:103F2000D9FF431CF3D1F8BD2DE9F04F9DB00C46ED
:103F300017460393064618B183690BB9FFF730FEA5
:103F40007C4B9C4257D17468A38918075DD52369BF
:103F5000002B5AD00023099320238DF829303023D9
:103F60008DF82A304FF0010BB846454615F8013B55
:103F7000002B55D1B8EB070A0BD053463A462146E1
:103F80003046FFF7BFFF013000F0C480099B534467
:103F9000099398F80030002B00F0BC8000234FF00C
:103FA000FF3204930793059206938DF853301A93CA
:103FB000052229786048FCF70BF905F10108049BFC
:103FC000002831D1D90644BF20228DF853201A078A
:103FD00044BF2B228DF853202A782A2A2CD0079A06
:103FE00000210A20A846013598F80030303B092B03
:103FF0006DD971B326E0514B9C4201D1B468A3E75F
:104000004F4B9C4208BFF4689EE721463046FFF7BD
:1040100067FC00289ED04FF0FF301DB0BDE8F08F48
:10402000252BA7D0A846A0E7434A801A0BFA00F038
:10403000184304904546BBE7039A111D126803918B
:10404000002A01DB079204E0524243F00203079288
:10405000049398F800302E2B10D198F801302A2BB9
:1040600008F1010137D1039B1A1D1B680392002B35
:10407000B8BF4FF0FF3308F102080593314D98F8AF
:10408000001003222846FCF7A3F840B14023401B50
:1040900003FA00F0049B0343049308F1010898F825
:1040A000001029488DF82810062208F10107FCF7B6
:1040B0008FF8002834D0254B03BB039B073323F034
:1040C000070308330393099B4B4409934CE700FB18
:1040D0000232012186E70023059318460A25884607
:1040E000013198F80020303A092A03D9002BC5D0B5
:1040F0000590C3E705FB00200123F0E703AB009325
:104100002246134B04A93046AFF30080B0F1FF3FC5
:104110008146D8D1A3895B063FF57DAF09987CE73E
:1041200003AB009322460A4B04A9304600F088F8FE
:10413000ECE700BF504900089049000870490008AA
:1041400030490008964900089A490008000000001C
:10415000053F00082DE9F04791461F468A680B6924
:10416000DDF820809342B8BF1346C9F8003091F8BB
:10417000432006460C4612B10133C9F800302368CB
:10418000990642BFD9F800300233C9F800302568DB
:1041900015F0060507D104F1190AE368D9F80020E3
:1041A0009B1A9D4229DB94F843302268003318BFE4
:1041B000012392062ED404F1430239463046C0470B
:1041C000013021D02368E568D9F8002003F0060308
:1041D000042B08BFAD1AA36822690CBF25EAE57558
:1041E00000259342C4BF9B1AED184FF000091A3402
:1041F0004D451BD10020BDE8F087012352463946CA
:104200003046C047013003D14FF0FF30BDE8F087A2
:104210000135C2E7E1185A1C302081F843002244DE
:1042200094F8451082F843100233C4E70123224674
:1042300039463046C0470130E6D009F10109D7E7D9
:104240002DE9F04317460A7E85B06E2A9846064649
:104250000C460C9B01F1430E00F0BC801AD8632A77
:104260002ED00AD8002A00F0C880582A00F08A8090
:1042700004F1420584F842202AE0642A01D0692A28
:10428000F6D121681A6811F0800F23D0111D196032
:10429000136827E0732A00F0B48008D86F2A2AD068
:1042A000702AE5D10A6842F020020A6003E0752A0C
:1042B00021D0782ADCD1782284F845206E4964E048
:1042C0001A6801F14205111D1960136884F8423023
:1042D0000123A3E011F0400F02F104011960D7D0CF
:1042E000B2F90030002B03DA2D225B4284F8432020
:1042F00062490A2217E02068196810F0800F03D085
:10430000081D18600B6806E010F0400F01F1040072
:104310001860F7D00B8859496F2A14BF0A22082267
:10432000002084F843006568A560002DC0F29C80E1
:10433000206820F004002060002B3FD1002D40F0C9
:1043400095807546082A0BD12368DA0708D52369BA
:1043500062689A42DEBF302305F8013C05F1FF3563
:10436000AEEB05032361CDF800803B4603AA21464E
:104370003046FFF7EFFE013055D14FF0FF3005B06A
:10438000BDE8F08381F845203C492268186812F0A6
:10439000800F00F104051D6001D0036802E055069E
:1043A000FBD50388D00744BF42F0200222601BB92E
:1043B000226822F0200222601022B1E77546B3FB8A
:1043C000F2F002FB1033CB5C05F8013D03460028F8
:1043D000F5D1B7E708681A68496910F0800F04D072
:1043E000101D18601368196007E010F0400F02F10B
:1043F000040018601368F6D0198000232361754605
:10440000B1E71A68111D1960156862680021284615
:10441000FBF7DEFE08B1401B606063682361002388
:1044200084F843309FE723692A4639463046C0471F
:104430000130A2D023689B0707D5002504F1190994
:10444000E368039A9B1A9D4205DBE068039B984250
:10445000B8BF184693E701234A4639463046C0475D
:1044600001308AD00135EBE7002BA7D10B7884F817
:10447000423004F1420565E7B2490008A14900084D
:1044800038B5064C0023054608462360FFF74AF876
:10449000431C02D1236803B12B6038BD3C9C002033
:1044A00010B50C46B1F90E1000F096F80028ABBF1D
:1044B000636DA3891B1823F48053ACBF6365A3818C
:1044C00010BD2DE9F0411F468B89DB0505460C46E2
:1044D000164605D502230022B1F90E1000F068F847
:1044E000A389B4F90E1023F48053A38132463B46CE
:1044F0002846BDE8F04100F017B810B50C46B1F9F8
:104500000E1000F055F8431CA38915BF606523F415
:10451000805343F48053A38118BFA38110BDB1F928
:104520000E1000F013B8000038B5074C05460846D9
:104530001146002222601A46FEF78CFE431C02D16F
:10454000236803B12B6038BD3C9C002038B5064C75
:104550000023054608462360FEF7FEFF431C02D1F8
:10456000236803B12B6038BD3C9C002038B5074C54
:1045700000230546084611462360FEF7F0FF431C62
:1045800002D1236803B12B6038BD00BF3C9C0020E2
:1045900038B5064C0023054608462360FEF7E4FFC5
:1045A000431C02D1236803B12B6038BD3C9C002022
:1045B00038B5074C054608461146002222601A46C7
:1045C000FEF7D4FF431C02D1236803B12B6038BD32
:1045D0003C9C00207047704738B5074C054608469C
:1045E0001146002222601A46FEF78EFF431C02D1BC
:1045F000236803B12B6038BD3C9C0020F8B500BF98
:10460000F8BC08BC9E467047F8B500BFF8BC08BCB3
:044610009E4670470B
:10461400526D2074656D703A0000000000000000C7
:10462400000000000000005F000000000700070019
:1046340000147F147F1400242A7F2A1200231308F5
:104644006462003649562050000008070300000049
:104654001C224100000041221C000024187E182462
:104664000008083E080800008070300000080808B0
:104674000808000000606000002010080402003EEA
:104684004149413E0000427F400000724949494689
:10469400002141494D32001814127F10002745456E
:1046A4004538003C4A494931004121110907003687
:1046B40049494936004649492916000000140000BA
:1046C40000004034000000000814224100141414B7
:1046D4001414000041221408000201590906003E86
:1046E400415D594E007C1211127C007F49494936C4
:1046F400003E41414122007F4141413E007F494902
:104704004941007F09090901003E41415173007F7D
:104714000808087F0000417F4100002040413F011C
:10472400007F08142241007F40404040007F021C6B
:10473400027F007F0408107F003E4141413E007F1C
:1047440009090906003E4151215E007F09192946E5
:104754000026494949320003017F0103003F4040DC
:10476400403F001F2040201F003F4038403F00636F
:1047740014081463000304780403006159494D4389
:1047840000007F4141410002040810200000414123
:10479400417F000402010204004040404046000002
:1047A40003070800002054547840007F284444380C
:1047B40000384444442800384444287F0038545482
:1047C40054180000087E09020038A4A49C78007FD5
:1047D400080404780000447D4000002040403D006F
:1047E400007F102844000000417F4000007C0478D2
:1047F4000478007C0804047800384444443800FCFD
:10480400182424180018242418FC007C0804040824
:104814000048545454240004043F4424003C4040C1
:10482400207C001C2040201C003C4020403C0044D4
:1048340028102844004C9090907C004464544C44CC
:1048440000000836410000000077000000004136F7
:10485400080000020102040200000000000000251C
:1048640063202020000A000A2A2A2A2A2A2A2A2A1D
:104874002A2A2A20696E74657272757074207265B2
:1048840063656976656421202A2A2A2A2A2A2A2A23
:104894002A2A2A2A2A2A2A000A2A2A2A2A2A2A2ABE
:1048A4002A2A2A5265616C2054656D702069733A16
:1048B400004E6F2E2825642E2564292D25640900B9
:1048C40000000000000000000102030406070809BC
:1048D400A0860100400D0300801A060000350C007C
:1048E40040420F0080841E0000093D0000127A003F
:1048F4000024F40000366E010048E801006CDC027C
:104904008001002030313233343536373839616232
:10491400636465666768696A6B6C6D6E6F707172EB
:10492400737475767778797A0000000000000000CF
:104934000000000000000000000000000000000073
:104944000000000000000000000000000000000063
:104954000000000000000000000000000000000053
:104964000000000000000000000000000000000043
:104974000000000000000000000000000000000033
:10498400000000000000000000000000232D302B78
:104994002000686C4C00656667454647003031323C
:1049A4003334353637383941424344454600303193
:1049B40032333435363738396162636465660000F2
:0449C400B501000831
:0449C8009101000851
:1049CC000100000010000000D20000008000000078
:1049DC000008004800002110010000000000000049
:1049EC00000000000000000040000000000800482B
:1049FC000000211001000000000000000000000079
:104A0C0000000000200000000008004800002110F9
:104A1C000100000000000000000000000000000089
:104A2C000001000000080048010000000000000028
:104A3C000000000000000000000000000004000066
:104A4C000000004801000000000000000000000011
:104A5C000000000000000000000100000000004801
:104A6C000100000000000000000000000000000039
:104A7C0000000000000200000000004801000000DF
:104A8C00000000000000000000000000000000001A
:104A9C0001000000000800481200000000000000A7
:104AAC0002000000040000000000000002000000F2
:104ABC000008004812000000000000000200000086
:104ACC00040000000000000080000000000000480E
:104ADC0002000000010000000200000005000000C0
:104AEC0000000000000000000000000000000000BA
:104AFC0000000000000000000000000000000000AA
:104B0C00200000000000004802000000010000002E
:104B1C000200000005000000000000001000000072
:104B2C00000000480100000001000000020000002D
:104B3C00000000000000000000093D008001002082
:104B4C000000000050490008704900083049000876
:104B5C000000000000000000000000000000000049
:104B6C000000000000000000000000000000000039
:104B7C000000000000000000000000000000000029
:104B8C000000000000000000000000000000000019
:104B9C000000000000000000000000000000000009
:04000005080035B901
:00000001FF
